:100000000C942A000C943C000C943C000C943C0092
:100010000C943C000C943C000C943C000C943C0070
:100020000C943C000C943C000C943C000C94760026
:100030000C943C000C943C000C943C000C943C0050
:100040000C943C000C943C000C943C000C943C0040
:100050000C943C0011241FBECFE5D8E0DEBFCDBF1D
:1000600020E0A0E6B0E001C01D92A436B207E1F79F
:100070000E943E000C949B000C9400000E944B00D8
:100080000E944F0080E20E94590080EF0E946500AC
:100090000E947000F5CF81E080B911B8089584EA1C
:1000A00086BF06B607FEFDCF81B1887F8830E1F7B5
:1000B0000895880F83B984E886BF06B607FEFDCF92
:1000C00081B1887F8831E1F7089583B984E886BFDC
:1000D00006B607FEFDCF81B1887F8832E1F708952B
:1000E00084E986BF06B604FEFDCF08951F920F92E5
:1000F0000FB60F9211248F939F93AF93BF9380916C
:10010000600090916100A0916200B091630001963F
:10011000A11DB11D8093600090936100A0936200C7
:10012000B0936300BF91AF919F918F910F900FBEDD
:0A0130000F901F901895F894FFCF70
:00000001FF
